{
  "_format": "hh-sol-artifact-1",
  "contractName": "Token",
  "sourceName": "contracts/Token.sol",
  "abi": [
    {
      "inputs": [],
      "stateMutability": "nonpayable",
      "type": "constructor"
    },
    {
      "anonymous": false,
      "inputs": [
        {
          "indexed": false,
          "internalType": "address",
          "name": "receiver",
          "type": "address"
        },
        {
          "indexed": false,
          "internalType": "uint256",
          "name": "amount",
          "type": "uint256"
        }
      ],
      "name": "MintCalled",
      "type": "event"
    },
    {
      "anonymous": false,
      "inputs": [
        {
          "indexed": false,
          "internalType": "bytes32",
          "name": "merkleRoot",
          "type": "bytes32"
        }
      ],
      "name": "WhiteListUpdated",
      "type": "event"
    },
    {
      "inputs": [
        {
          "internalType": "bytes32[]",
          "name": "_merkleProof",
          "type": "bytes32[]"
        },
        {
          "internalType": "address",
          "name": "receiver",
          "type": "address"
        },
        {
          "internalType": "uint256",
          "name": "amount",
          "type": "uint256"
        }
      ],
      "name": "mint",
      "outputs": [],
      "stateMutability": "nonpayable",
      "type": "function"
    },
    {
      "inputs": [
        {
          "internalType": "address",
          "name": "",
          "type": "address"
        }
      ],
      "name": "myMap",
      "outputs": [
        {
          "internalType": "bool",
          "name": "",
          "type": "bool"
        }
      ],
      "stateMutability": "view",
      "type": "function"
    },
    {
      "inputs": [],
      "name": "ownerAddress",
      "outputs": [
        {
          "internalType": "address",
          "name": "",
          "type": "address"
        }
      ],
      "stateMutability": "view",
      "type": "function"
    },
    {
      "inputs": [
        {
          "internalType": "bytes32",
          "name": "hashRoot",
          "type": "bytes32"
        }
      ],
      "name": "updateWitheList",
      "outputs": [],
      "stateMutability": "nonpayable",
      "type": "function"
    }
  ],
  "bytecode": "0x60806040526000805534801561001457600080fd5b5033600160006101000a81548173ffffffffffffffffffffffffffffffffffffffff021916908373ffffffffffffffffffffffffffffffffffffffff1602179055506108f4806100656000396000f3fe608060405234801561001057600080fd5b506004361061004c5760003560e01c806318c35bb01461005157806327cbd5291461006d5780638d191ea21461009d5780638f84aa09146100b9575b600080fd5b61006b6004803603810190610066919061041d565b6100d7565b005b610087600480360381019061008291906104a8565b6101aa565b60405161009491906104f0565b60405180910390f35b6100b760048036038101906100b291906105a6565b6101ca565b005b6100c1610308565b6040516100ce9190610629565b60405180910390f35b3373ffffffffffffffffffffffffffffffffffffffff16600160009054906101000a900473ffffffffffffffffffffffffffffffffffffffff1673ffffffffffffffffffffffffffffffffffffffff1614610167576040517f08c379a000000000000000000000000000000000000000000000000000000000815260040161015e906106c7565b60405180910390fd5b806000819055507fe1d816b3014d4a8797bedda140074fcbee8e9f32cafd0e3af51013ed4b55b19260005460405161019f91906106f6565b60405180910390a150565b60026020528060005260406000206000915054906101000a900460ff1681565b60008484905003610210576040517f08c379a00000000000000000000000000000000000000000000000000000000081526004016102079061075d565b60405180910390fd5b60003360405160200161022391906107c5565b604051602081830303815290604052805190602001209050610289858580806020026020016040519081016040528093929190818152602001838360200280828437600081840152601f19601f820116905080830192505050505050506000548361032e565b6102c8576040517f08c379a00000000000000000000000000000000000000000000000000000000081526004016102bf9061075d565b60405180910390fd5b7fd4d97b48ec2f1d665260327aa648c2cdbd719f98a592399e973354ccd8031e2483836040516102f99291906107ef565b60405180910390a15050505050565b600160009054906101000a900473ffffffffffffffffffffffffffffffffffffffff1681565b60008261033b8584610345565b1490509392505050565b60008082905060005b84518110156103905761037b8286838151811061036e5761036d610818565b5b602002602001015161039b565b9150808061038890610876565b91505061034e565b508091505092915050565b60008183106103b3576103ae82846103c6565b6103be565b6103bd83836103c6565b5b905092915050565b600082600052816020526040600020905092915050565b600080fd5b600080fd5b6000819050919050565b6103fa816103e7565b811461040557600080fd5b50565b600081359050610417816103f1565b92915050565b600060208284031215610433576104326103dd565b5b600061044184828501610408565b91505092915050565b600073ffffffffffffffffffffffffffffffffffffffff82169050919050565b60006104758261044a565b9050919050565b6104858161046a565b811461049057600080fd5b50565b6000813590506104a28161047c565b92915050565b6000602082840312156104be576104bd6103dd565b5b60006104cc84828501610493565b91505092915050565b60008115159050919050565b6104ea816104d5565b82525050565b600060208201905061050560008301846104e1565b92915050565b600080fd5b600080fd5b600080fd5b60008083601f8401126105305761052f61050b565b5b8235905067ffffffffffffffff81111561054d5761054c610510565b5b60208301915083602082028301111561056957610568610515565b5b9250929050565b6000819050919050565b61058381610570565b811461058e57600080fd5b50565b6000813590506105a08161057a565b92915050565b600080600080606085870312156105c0576105bf6103dd565b5b600085013567ffffffffffffffff8111156105de576105dd6103e2565b5b6105ea8782880161051a565b945094505060206105fd87828801610493565b925050604061060e87828801610591565b91505092959194509250565b6106238161046a565b82525050565b600060208201905061063e600083018461061a565b92915050565b600082825260208201905092915050565b7f4f6e6c792061646d696e20616464726573732063616e2065786563757465207460008201527f68652061646457686974656c6973742066756e6374696f6e0000000000000000602082015250565b60006106b1603883610644565b91506106bc82610655565b604082019050919050565b600060208201905081810360008301526106e0816106a4565b9050919050565b6106f0816103e7565b82525050565b600060208201905061070b60008301846106e7565b92915050565b7f496e76616c69642050726f6f6600000000000000000000000000000000000000600082015250565b6000610747600d83610644565b915061075282610711565b602082019050919050565b600060208201905081810360008301526107768161073a565b9050919050565b60008160601b9050919050565b60006107958261077d565b9050919050565b60006107a78261078a565b9050919050565b6107bf6107ba8261046a565b61079c565b82525050565b60006107d182846107ae565b60148201915081905092915050565b6107e981610570565b82525050565b6000604082019050610804600083018561061a565b61081160208301846107e0565b9392505050565b7f4e487b7100000000000000000000000000000000000000000000000000000000600052603260045260246000fd5b7f4e487b7100000000000000000000000000000000000000000000000000000000600052601160045260246000fd5b600061088182610570565b91507fffffffffffffffffffffffffffffffffffffffffffffffffffffffffffffffff82036108b3576108b2610847565b5b60018201905091905056fea26469706673582212206db8e33d1d27a839bcdb590988843611205682f3602f487cbf90a0f0861794e564736f6c63430008110033",
  "linkReferences": {},
  "deployedLinkReferences": {}
}